:100000000C946A000C9492000C9492000C94920050
:100010000C9492000C9492000C9492000C94920018
:100020000C9492000C94EF000C9492000C949200AB
:100030000C9492000C9492000C9492000C949200F8
:100040000C94B8030C9492000C94C4050C94920088
:100050000C9492000C9492000C9492000C949200D8
:100060000C9492000C94920005A84CCDB2D44EB9D9
:100070003836A9020C50B9918688083CA6AAAA2A4B
:10008000BE000000803F000024272A000025282B06
:1000900000002326290404040404040404020202C8
:1000A00002020203030303030301020408102040B9
:1000B0008001020408102001020408102000000042
:1000C0000700020100000304060000000000000019
:1000D0000000100211241FBECFEFD4E0DEBFCDBF61
:1000E00011E0A0E0B1E0E8E9F0E102C005900D9276
:1000F000AC32B107D9F713E0ACE2B1E001C01D9218
:10010000AF3CB107E1F710E0C4EDD0E004C02297A6
:10011000FE010E944608C23DD107C9F70E940902AC
:100120000C944A080C94000080912E018823E1F37E
:100130005F9A10922E01A0913001409134015091AC
:100140003501FA01EF5BFE4FA083E0913601F0919B
:100150003701EF5BFE4F208130E030933B0120936D
:100160003A0180912F0164E10E94D40780932F010E
:100170004F5F5F4F80912F01BA01681B7109CB015E
:1001800091709093370180933601517050933501EF
:10019000409334012A0F311D3595279530933D0149
:1001A00020933C01322F209340018091380190919F
:1001B00039010196909339018093380180509C4316
:1001C00044F0109239011092380185B190E28927EC
:1001D00085B93093B3008BB180588BB908951F92C5
:1001E0000F920FB60F9211248F939F93289A90E04D
:1001F00080912C01882309F491E090932C0199239C
:10020000C9F190E080912D01882309F491E0909349
:100210002D01992351F08091790080932F018091D5
:100220007C00816080937C000CC080917900809379
:10023000300180917C008E7F80937C0081E08093F0
:100240002E01809131018F5F8093310180913101C6
:10025000815080933101809131018F5F8093310112
:100260008091310181508093310180917A008064C6
:1002700080937A009F918F910F900FBE0F901F90E7
:1002800018958F929F92AF92BF92CF92DF92EF928A
:10029000FF920F931F93CF93DF938091400191E4DE
:1002A000892E91E0992EC0E0D0E025C0C601B501AD
:1002B0000E9446077B018C0128ED3FE049E45CE3A6
:1002C000C601B5010E9402065B016C0120E030E02E
:1002D0004EEF52E4C801B7010E94E30620E030E08F
:1002E0004EEF52E40E9402060E946606862FF40139
:1002F00061934F012196F2E0C030DF07BCF280939A
:100300004001D0933F01C0933E01DF91CF911F91F7
:100310000F91FF90EF90DF90CF90BF90AF909F90A4
:100320008F9008950F931F9361E0809121010E94A7
:10033000950461E0809123010E94950401E413E09B
:1003400040E051EE60E070E0C8010E94240260E0ED
:1003500071E0C8010E9478020E944101EAE7F0E0E2
:1003600080818B7F808380818260808380818160B7
:100370008083ECE7F0E0808180628083808180640C
:10038000808380818F77808380818E7F808380814E
:100390008D7F808380818B7F80838081877F808336
:1003A000E0EBF0E080818F7B8083808180688083B8
:1003B000808181608083808182608083E1EBF0E0D6
:1003C0008081877F808380818160808380818D7F31
:1003D000808380818B7F8083239AEEE6F0E08081AA
:1003E0008E7F8083E0E7F0E080818160808365E13B
:1003F00071E0C8010E9439026091300160933A01B6
:1004000010923B0170E0C8010E9488031F910F9178
:1004100008950E945B040E9492010E949400FDCF07
:1004200089E291E090934203809341030895862FDF
:100430000E94830508950E94BB0508950E949C05B3
:1004400008950E948B050895CB01BA010E944A05C8
:100450000895DC01ED91FC910190F081E02D09956A
:100460000895DC01ED91FC910190F081E02D09955A
:1004700008950F931F93CF93DF938C01EB0109C075
:100480002196D801ED91FC910190F081E02DC801F9
:10049000099568816623A1F7DF91CF911F910F9194
:1004A00008950F931F938C01DC01ED91FC91019055
:1004B000F081E02D6DE00995D801ED91FC9101905E
:1004C000F081E02D6AE0C80109951F910F91089510
:1004D0000F931F938C01DC01ED91FC910190F08151
:1004E000E02D0995C8010E9451021F910F910895B6
:1004F0000F931F938C010E943902C8010E94510280
:100500001F910F9108950F931F938C01DC01ED91C2
:10051000FC910190F081E02D0995C8010E945102E3
:100520001F910F9108952F923F924F925F926F9279
:100530007F928F929F92AF92BF92CF92DF92EF9273
:10054000FF920F931F93DF93CF93CDB7DEB7A097A2
:100550000FB6F894DEBF0FBECDBF1C016A017B0150
:10056000411551056105710549F4DC01ED91FC91DE
:100570000190F081E02D60E3099554C0882499240E
:100580005401422E55246624772401E010E00C0F1C
:100590001D1F080D191DC701B601A30192010E947C
:1005A000F307F80160830894811C911CA11CB11C05
:1005B000C701B601A30192010E94F307C901DA0144
:1005C0006C017D01C114D104E104F104F1F681E074
:1005D000E82EF12CEC0EFD1EE80CF91C3E010894EF
:1005E000611C711CD501C4010197A109B1096C01FD
:1005F000C818D90814C0F601EE0DFF1D60816A30DD
:1006000010F4605D01C0695CD101ED91FC91019035
:10061000F081E02DC10109950894E108F1086E14FC
:100620007F0449F7A0960FB6F894DEBF0FBECDBF8A
:10063000CF91DF911F910F91FF90EF90DF90CF90BE
:10064000BF90AF909F908F907F906F905F904F90F2
:100650003F902F9008952AE00E94930208950F93EF
:100660001F938C010E942B03C8010E9451021F910D
:100670000F910895AB0160E070E00E942B03089594
:100680000F931F938C01AB0160E070E00E942B037D
:10069000C8010E9451021F910F910895EF92FF929D
:1006A0000F931F93CF93DF93EC017A018B0177FFB8
:1006B0000FC0E881F9810190F081E02D6DE209958C
:1006C00010950095F094E094E11CF11C011D111DA2
:1006D0002AE0B801A701CE010E949302DF91CF91D9
:1006E0001F910F91FF90EF9008950F931F938C012E
:1006F0000E944E03C8010E9451021F910F9108955C
:10070000AB01662757FD6095762F0E944E03089532
:100710000F931F938C01AB01662757FD6095762FD1
:100720000E944E03C8010E9451021F910F9108952B
:10073000DC012115310541F4ED91FC910190F0812E
:10074000E02D642F099508952A30310519F40E948F
:100750004E0308950E94930208950F931F938C01F6
:100760000E949803C8010E9451021F910F910895A1
:100770001F920F920FB60F9211242F938F939F9376
:10078000AF93BF938091430390914403A09145039D
:10079000B09146038050904CAF4FBF4F80934303BE
:1007A00090934403A0934503B093460327C08091E0
:1007B000430390914403A0914503B09146038058B0
:1007C0009E43A040B0408093430390934403A09382
:1007D0004503B09346038091470390914803A0914D
:1007E0004903B0914A030196A11DB11D80934703AF
:1007F00090934803A0934903B0934A038091430325
:1008000090914403A0914503B091460381589E43C3
:10081000A040B04060F6BF91AF919F918F912F9112
:100820000F900FBE0F901F9018958FB7F8942091DE
:100830004703309148034091490350914A038FBFC9
:10084000B901CA010895EF92FF920F931F937B01A4
:100850008C018FB7F8944091470350914803609101
:10086000490370914A038FBF2FB7F89480914703D3
:1008700090914803A0914903B0914A032FBF841B74
:10088000950BA60BB70B8E159F05A007B10760F35C
:100890001F910F91FF90EF900895019759F0FC017F
:1008A000EE0FFF1FEE0FFF1F32978FB7F8943197AF
:1008B000F1F78FBF0895789484B5826084BD84B5C4
:1008C000816084BD85B5826085BD85B5816085BD4B
:1008D000EEE6F0E0808181608083E1E8F0E08081F5
:1008E00082608083808181608083E0E8F0E08081A5
:1008F00081608083E1EBF0E0808184608083E0EBC5
:10090000F0E0808181608083EAE7F0E080818460AC
:100910008083808182608083808181608083808108
:10092000806880831092C1000895282F30E0C901AB
:1009300087559F4FFC0194912B563F4FF9018491AD
:10094000882381F0E82FF0E0EA57FF4FE491F0E0D0
:10095000662329F48081909589238083089580817E
:10096000892B80830895482F50E0CA0183549F4FFC
:10097000FC012491CA0187559F4FFC0194914B566D
:100980005F4FFA0134913323C1F1222331F1233037
:1009900021F4809180008F7705C0243031F480915C
:1009A00080008F7D8093800018C0213019F484B5B9
:1009B0008F7704C0223021F484B58F7D84BD0DC0B3
:1009C000263021F48091B0008F7705C0273029F4BC
:1009D0008091B0008F7D8093B000E32FF0E0E55769
:1009E000FF4FE491F0E0662329F4808190958923FC
:1009F000808308958081892B80830895482F50E05B
:100A0000CA0183549F4FFC012491CA0187559F4F0F
:100A1000FC0194914B565F4FFA013491332319F442
:100A200020E030E035C0222331F1233021F48091E1
:100A300080008F7705C0243031F4809180008F7D55
:100A40008093800018C0213019F484B58F7704C0DA
:100A5000223021F484B58F7D84BD0DC0263021F471
:100A60008091B0008F7705C0273029F48091B000C5
:100A70008F7D8093B000E32FF0E0E057FF4FE491CB
:100A8000F0E0808120E030E0892311F021E030E0C7
:100A9000C9010895EF92FF920F931F937B018C0180
:100AA00022E030E040E050E00E941508205C3D4B21
:100AB000404F5F4FCA01B901A80197010E94150874
:100AC000C901DA010197A109B109292F3A2F4B2F4A
:100AD000552747FD5A950196A11DB11D2093C500CC
:100AE00081508093C400E1ECF0E0808180618083DC
:100AF0008081886080838081806880831F910F91CE
:100B0000FF90EF900895982F8091C00085FFFCCF53
:100B10009093C600089580914B0390914C038058A8
:100B20009F4F20914D0330914E03821B930B60E841
:100B300070E00E94E007089540914D0350914E03EC
:100B400080914B0390914C038417950719F42FEF74
:100B50003FEF0FC0FA01E15BFC4F2081CA01019613
:100B600060E870E00E94E00790934E0380934D038D
:100B700030E0C901089580914D0390914E03909308
:100B80004C0380934B0308951F920F920FB60F9260
:100B900011242F933F934F935F936F937F938F9382
:100BA0009F93AF93BF93EF93FF934091C600E09163
:100BB0004B03F0914C03CF01019660E870E00E9476
:100BC000E0079C0180914D0390914E03281739074F
:100BD00039F0E15BFC4F408330934C0320934B038F
:100BE000FF91EF91BF91AF919F918F917F916F9105
:100BF0005F914F913F912F910F900FBE0F901F90DB
:100C000018955058BB27AA270ED0A3C094D030F017
:100C100099D020F031F49F3F11F41EF489C00EF4F6
:100C2000E095E7FB7FC0E92FA5D080F3BA176207F4
:100C300073078407950718F071F49EF5BDC00EF494
:100C4000E0950B2EBA2FA02D0B01B90190010C01DC
:100C5000CA01A0011124FF27591B99F0593F50F4F4
:100C6000503E68F11A16F040A22F232F342F44274C
:100C7000585FF3CF469537952795A795F040539544
:100C8000C9F77EF41F16BA0B620B730B840BBAF014
:100C90009150A1F0FF0FBB1F661F771F881FC2F77F
:100CA0000EC0BA0F621F731F841F48F48795779593
:100CB0006795B795F7959E3F08F0B3CF9395880F4A
:100CC00008F09927EE0F9795879508955BD088F0E7
:100CD0009F5790F0B92F9927B751A0F0D1F0660F28
:100CE000771F881F991F1AF0BA95C9F712C0B13043
:100CF00081F062D0B1E008955FC0672F782F882718
:100D0000B85F39F0B93FCCF3869577956795B39581
:100D1000D9F73EF490958095709561957F4F8F4FF0
:100D20009F4F089597F99F6780E870E060E008950D
:100D30009FEF80EC089500240A94161617061806F3
:100D40000906089500240A941216130614060506CF
:100D50000895092E0394000C11F4882352F0BB0F60
:100D600040F4BF2B11F460FF04C06F5F7F4F8F4FC3
:100D70009F4F089557FD9058440F551F59F05F3FFE
:100D800071F04795880F97FB991F61F09F3F79F0AD
:100D900087950895121613061406551FF2CF46952F
:100DA000F1DF08C0161617061806991FF1CF8695B1
:100DB0007105610508940895E894BB276627772795
:100DC000CB0197F908950BD0C4CFB5DF28F0BADF77
:100DD00018F0952309F0A6CFABCF1124EECFCADFD0
:100DE000A0F3959FD1F3950F50E0551F629FF0013E
:100DF000729FBB27F00DB11D639FAA27F00DB11D97
:100E0000AA1F649F6627B00DA11D661F829F22271F
:100E1000B00DA11D621F739FB00DA11D621F839FA6
:100E2000A00D611D221F749F3327A00D611D231F7C
:100E3000849F600D211D822F762F6A2F11249F57CA
:100E400050408AF0E1F088234AF0EE0FFF1FBB1FED
:100E5000661F771F881F91505040A9F79E3F51058C
:100E600070F060CFAACF5F3FECF3983EDCF386953D
:100E700077956795B795F795E7959F5FC1F7FE2B37
:100E8000880F911D9695879597F908959F9305D0A2
:100E90000F9007FCEE5F31C04BCF74DFE8F3E894AE
:100EA000EFEFBB273FE048EC5FE76B3D730784073C
:100EB000950708F1FF279F57B25A6A4D7F40894C2A
:100EC000F04032F4BE556542704F8643FF4F0894A0
:100ED000EE1F915030F0BB0F661F771F881FFF1F5A
:100EE000EBCF9EE7882332F0BB0F661F771F881F6A
:100EF0009A95C1F79395E09511C0EF93E0FF06C076
:100F0000A2EA2AED3FE049EC5FEB8DDE22DF0F9095
:100F1000039401FC9058E8E6F0E010C09F3F49F0D0
:100F2000915028F4869577956795B7959F5F80389F
:100F30009F4F880F9695879597F908959F938F9364
:100F40007F936F93FF93EF939B01AC013CDFEF9195
:100F5000FF9105D02F913F914F915F9134CFDF9357
:100F6000CF931F930F93FF92EF92DF927B018C013F
:100F7000689405C0DA2EEF0132DFFE01E894A591F6
:100F80002591359145915591AEF3EF014CDEFE016F
:100F90009701A801DA9479F7DF90EF90FF900F9115
:100FA0001F91CF91DF910895991B79E004C0991F9B
:100FB000961708F0961B881F7A95C9F780950895B3
:100FC00097FB092E07260AD077FD04D049D006D01A
:100FD00000201AF4709561957F4F0895F6F790956B
:100FE00081959F4F0895A1E21A2EAA1BBB1BFD01FC
:100FF0000DC0AA1FBB1FEE1FFF1FA217B307E407F8
:10100000F50720F0A21BB30BE40BF50B661F771F4F
:10101000881F991F1A9469F760957095809590952F
:101020009B01AC01BD01CF01089597FB092E052658
:101030000ED057FD04D0D7DF0AD0001C38F45095ED
:101040004095309521953F4F4F4F5F4F0895F6F7EC
:1010500090958095709561957F4F8F4F9F4F089524
:10106000AA1BBB1B51E107C0AA1FBB1FA617B707CE
:1010700010F0A61BB70B881F991F5A95A9F78095EA
:101080009095BC01CD010895EE0FFF1F0590F491DE
:08109000E02D0994F894FFCF54
:1010980041726475696E6F20417564696F2050688C
:1010A80061736F7200414443206F66667365743DD7
:0C10B800000D00070000000000170200FF
:00000001FF
