:100000000C940F130C942A130C942A130C942A1397
:100010000C942A130C942A130C942A130C942A136C
:100020000C942A130C942A130C942A130C94C813BE
:100030000C942A130C942A130C942A130C942A134C
:100040000C942F140C942A130C942A130C942A1336
:100050000C942A130C942A130C942A130C942A132C
:100060000C942A130C942A13C8B8B1AAAAB1ACA450
:10007000A39E9CA0A3A18E746760595D65696F748F
:10008000786E59504E4B49505D5B4D45464D5B6215
:1000900059575D5F5F5E61605B5E6364655F534E91
:1000A0004F4738292535403F485253525049434520
:1000B0004542444F63798FA5B4AE94837A707378C8
:1000C000797E7A6C574847494F515356534D4647AE
:1000D0005564707682929AA6AEACACA19392999D2B
:1000E000A1A5A8AAA28A7A79797B808A97A1A5A1DD
:1000F0009996959388818C969CB0C2C1B3A8A7AEFF
:10010000B9BCB5AEA49C9C9BA3B9D2E0E5EBE9D702
:10011000C3B0A8AAABA8A2A2A3A5AEB5B8AC978756
:100120007D7D848A8B8B8B8579747573685E5E5E4A
:100130005C5A524640454D525755555C6169706C4A
:10014000676B747A797365575047434846444E52FB
:100150004E4E4F514F443B39353C536A7D92AEC0B1
:10016000BCBAB4A19B9D9E9C989483756F64616595
:10017000686B6E71706C6A6C7A828DA4AFB4B9BA18
:10018000BAB6AEA79B969A9B8F84888B7F726C6B56
:10019000686772787C8386847B736D656C82909AC5
:1001A000A1ABB8B8AB9B939BA5A5978E9088899877
:1001B0009EA2B1C8D1CEC9B5A39F9A9A9792A1B079
:1001C000AAA8AFB5B0A0948D8A8C8C8B8C949B9888
:1001D00092877B6F676E7164513E37342821263CCD
:1001E000565F636A6F71695B575E656A675A4C4315
:1001F0003F4448443F3A445652443C38352D252824
:100200003A4D5C6E8095A9AEA197908B8E92929399
:100210008E84817F74635E6771777A80858077765C
:1002200084A0C1D7DDDEE2E0D9D3C8B5A69E9894FC
:100230008B7D7676777A7B7B7C7E7F7C7F8D8F83D0
:10024000766B6E7F929FA3A5A6A4A4A092837C87C1
:1002500093918C8A827C828891A3B1B6B5B3B1A9FF
:100260009F9A9BA5B0B8C3C3B7ADA39C9EA09FA502
:10027000ABA49A9A9FA7AAA79D8D8078736F665F9B
:10028000574032312D364D657B888B888077706979
:10029000656E7B705E584E485359504541393A401F
:1002A0003B35271012242E425C6B77879196A09ED7
:1002B00093919096A09996968C807874685B585A22
:1002C0006A7B7B7B726469778EB5D3DEDCD6D0CC5B
:1002D000C9BAABA6A29A8A8078655D5E6777756DAC
:1002E0006D707779797C7A77757C8E9EAEB7ADA884
:1002F000A59587847E777C7F7D857E6F747B7F87E5
:10030000919DA7AEB0B1B6B5B8C2C2C6D5DBDBDB36
:10031000CEB8A4999AA3A6A2A5A49A9AA0A1A5A68C
:100320009E928C827A796D5F594A3D414A586E841B
:10033000959F957C6B635B5C6265655A5154565220
:100340005250443A38352F2A2523231E1C1F2838A3
:100350004A5B6362656E726F6E777F858C8B807689
:10036000746D5E57534F596E7774757572757477E7
:1003700089A4BFCCC0B4B4AFA198958B807A6F62CA
:1003800059585D615E6268656B7775798C989DA43C
:10039000A5ABB7BEC2BFB6ACA69A898486868A8D45
:1003A00082787B7B78756D6E7D96A8A4A3B3C4D24A
:1003B000DADCE0E3E6EEEDDACDCAC2BDBCB8B5B535
:1003C000B6AEA2A1A8B5C2BBB0AA9C978F7F7D7D17
:1003D00074675E5F6B7C91A19F9799917B6A5F5573
:1003E0005256574E4A4F4F49403A3E3E403B2B29CA
:1003F000353B39332F3147636B6962575D6D7572D9
:100400006E7178848883817B7069615F67737B7D9F
:10041000828C919189868E939DB0BBB7AB9D8E8463
:100420008485837F6F5C545351483F3C455A707AB2
:1004300073707C8387909195A1AEB8B5ABA0948F73
:100440008A7F77777E82786B6463686D695F5F6AA5
:10045000798A959EA5AAB7C8D6E3E9ECECE1D6CE99
:10046000C2BCB5ADAEAFB0AEA49F9F9995969AA60B
:10047000ACA0928882837F70605B616B757D7D78B4
:10048000777877706050464143453F3F3D30292E95
:100490003A49545B5A555858544F4A545E637480D5
:1004A0007A6F6863606575807F7C828B8B8A8573C9
:1004B0006973838D939593959FA29F9E9B9CA0A209
:1004C000A8A8A3A6A8947976807F7F7C6C5D554C04
:1004D00043383A52666C7A898783868587919EA5D0
:1004E000A6A7A19897938C807574747175736C69C5
:1004F00069635B6270737885919EABB6BCBEC9DEE2
:10050000EBEFF1F5EFE6E0D6C4B2B0B7BFC8C7BDB8
:10051000AF9F948C8796ADB9B9B29D877D7368659E
:1005200066645F5D5B51494A50574D4848382D2FEE
:100530002D2A27251B101836525C5B5E5C58544BE5
:1005400049505D717F81756B645A555253657A8647
:100550008B8D89827E746C7891A8B0ADA5978E90B2
:100560009295969BA39E9890888C8E88847E7B7AA9
:1005700076787873736C5B5255627890A3AB9C8AE3
:1005800086817B808C9BA6A99D8C847D7979736EF6
:100590007371655C575353565551586A787F7E790D
:1005A0007E90A1A7A6ADC4D9E0E2DCD3D5D9D0C84E
:1005B000C5BBB8BEC2C6C7BAAEA7A0A0ADBCC6CEAA
:1005C000C8B5A99882776E6E7D7E736653444248A3
:1005D0004B4F4B3D33312B262829232027303B48D6
:1005E00057625B575C544742495B6E7B7F715F5833
:1005F000524C4C54606D777B817F77797A7E8B94F7
:10060000A2ADA99E8E7F79797C7D86959A9E917701
:10061000727777808C8E8A827B7D807D80898D93B6
:100620009D9C959EAEAB998B7F7B828897A6A69E5C
:1006300090827A716E73777A7A706055524F525FFA
:100640006C706B676F7E7D7176818895A2ADB8C244
:10065000C6BAB3BFC5BEBEC6C9C1BBB9BCC5CACE8A
:10066000D4D5CFC6BFC1CBCBBFB2A0897B747078C5
:10067000817A6758503F2F2E384136292A2D2E2F48
:1006800036403C3D4D4F495A6F6D6264665D585F20
:1006900074898D8C897A686163656A6E737F8281E3
:1006A0008B94928F93908B95A8AC9B8B81756B6E7E
:1006B000798590999A8A76675E607088968F817D39
:1006C0008185919E9C95979CA0A2A0998F83756B24
:1006D0006B6E717B8683766F70685A6376797B83E5
:1006E000796865707F847F7E807D767D857B6F6B8A
:1006F000717C8596AAB3B5B7B8B4B0B6BCC1C6CD47
:10070000D5D3D1D7DEE2E1E4E8E0CCBEC0C7C4C1B6
:10071000BAA897887E7D7E7B705F4D403528202269
:100720002B2F2C282A30323033322F34393F4B5183
:10073000585F60626158596F899495907D6D6565C9
:100740006D787B7C878E8F99A09C98948D87838011
:10075000817E71696C65585B636872767472624EF3
:100760004E5B6577868786878E9DA29B96938C8C41
:10077000979A9185777374665B636A6A6D685C5952
:100780005752555B667B86838179747E85847F7939
:100790007172797C7B766E7177727589999EA09F54
:1007A0009E9E9C989AA3B0C1D2D5CECDD1D6DFE281
:1007B000DCD9D1C7C6C0B6B2B2AEA197999691881E
:1007C000776856443C312C343D44453A3438393905
:1007D0003C3831333B454A505F738286858686912B
:1007E000A8ADA8A8A29591939AA8B2B7B8AEA6A8AA
:1007F000AFAEA09A988A83857E6F645E615D566114
:100800006965666B6C665C5759617595AAA294968A
:100810009FA8B0B0A5938583898A827A7775726E16
:1008200068686B65605B5251534F52647A8D938C4C
:10083000847971777D7A6F676C71757C7874777560
:10084000808E8D949FA1A3A9ABABB0B7BAB5BBCA3C
:10085000CDC6C0C0C1C3CBCCBFB8B6B3BDC3B9B49D
:10086000B0A59FA1A29B8E8279684E42412E223371
:1008700041423E30232224232A3131353939424C3A
:10088000545F6D788289817A858F9498989DA5A40C
:10089000A8B7BAB5BCBDB0ABADADA5958C8B8B86FA
:1008A0007F765F4E52524B4C45404E5A55504F53F7
:1008B0006275839199999997979B9D9892928D854E
:1008C00088867D7B797B888975665E545A6257522B
:1008D0005D686C73828A87807D7A72717065636BE4
:1008E0006D6E7275716766768D97929097A5B5B5A6
:1008F000B0B5B3B1B9BEBCB9B6AEACAFACB1B9BBB3
:10090000BBB7B5C0CBCAB9AFBCC8C8BEAFA298927E
:100910008D8070685E4C454D4E493F3324181C272E
:100920002F3637363B434A4A49566771797E7D7F79
:10093000888E919BA9B7B9B2AAA6ACB7BEBBACA62C
:10094000ACA7A19E91867E736C5E4A42433F3A3DBE
:100950003E414A49424555677583898B9498928AEE
:100960008A908C858C968C80817C7476797C808052
:100970007460565B697473757F80828C93918A7BF7
:10098000767E7D7066656A706E7071665C5D667598
:100990008DA4A59BA1ADB0B2B5C0C6BCB5B9B7AC6E
:1009A000A59F9EA4A39EA4ABA9A4A4B0BEC2B9ADAA
:1009B000A9B3BDBAB3A99D8D7F7E7C6D5D504A4EB3
:1009C0004D412E2120222126333E3A343B444544DA
:1009D0004F606D75787F868B949498AFBFBEBEBF15
:1009E000B7A6A0ABBDC7BDA99DA1ABADA69B90818D
:1009F000706B6B60565856535253595859605F6A22
:100A0000859895827B7F7A7B838484827C787879D1
:100A10007B7B7B8084838482766761718EA3A495BF
:100A2000847F858E92928974666767615F60646C6B
:100A30006A62615E575052668AA7AB9F979AA8B7C1
:100A4000BDBCBCB6ACA8A9A69A94999C9B9A9FAA37
:100A5000A99C97A7C1D0C7B1A9B1BCC1BFB7AA9B78
:100A60008B786E696059534B473C2A201C16151E23
:100A7000334746352A2A333F4B5F747F807D84910C
:100A800099A3ABB0B8C1C4BEB7AE9F9DADB9B7AA6C
:100A9000A0A5B1B8B09D8B7D6B60616162645F5D44
:100AA0006163676459596271899491816A61606177
:100AB000666C767C77706E6E747E7D7D8B97999672
:100AC000897E808A9CA8A99F96918D8D918C7D6D41
:100AD0005F5856565C60616363615C504349607562
:100AE0008B9DA2A4A09EA4A7A9ACABA7A09A94900A
:100AF0008E8E929799A0ACACA8ACADB3C0C0BCBA76
:100B0000B2B6C1C2C2B9A99885736256545049435E
:100B1000382B251F181B20223344413836393F4AD1
:100B20005B6A7B8D9AA4AAAAADBAC1C1C7C8C4BB6F
:100B3000ACA39E9BA7AEA8A6A6A5AEB4A7978F838D
:100B4000736F6E6A6A747E817A6F685F555F7175C4
:100B50007A7D7466564C4F5556585D5D5F6562638D
:100B60006D737882888A8C909394929099A09F9BC1
:100B7000928A89877F767069615D574F5361645AA5
:100B8000575B533F3E4E5A7196ACA99F999AA0A5C8
:100B9000A6A29E9C9C9D9A9BA1A2A2A9A9A8AFB225
:100BA000B4C2CDCAC5C7C6BCB2B6CAD2BEA89E8D95
:100BB0007B766E5B4D4C46383332281E1C2021223A
:100BC00032403E45504B4E5E697993AFC4C6C5CEA8
:100BD000D6D9DAD8D2C7BFAFA0A5ACA5A4ABACA577
:100BE0009E9DA19E98978E7C7576737A8D9A94833C
:100BF000787069666C706864696862594C3D353A12
:100C00003E38384248516269656B7D8687878688A1
:100C10008B8E8D8A8C8F8B8076726C65656A675936
:100C20004B423D43535F5E574C3D31333E48597311
:100C30008B95928D8B8B8D8B8381848A8F949CA3D3
:100C4000A4A6AEB2ACAAB2C2D9E3DCD9E1E5E1DB3D
:100C5000D5D1CCC8C2B5A99984796E646264675E47
:100C60004A3B35312F2F3339495D625E5B5F6976D0
:100C70008DA6B7BDC0C8C8CCD6D1CCC5B5AEA59CD5
:100C8000A09E97999C9B9E9D9CA4A5A3A3978B8CAB
:100C90008D91979B9EA0A2977F6F70726E645A5A37
:100CA00062645E54463B322D2F333B4C5A68706F62
:100CB00072839BA59B918D8D928C7D7C817E746EC1
:100CC0006A625A5552524E402F2B333B414D5A596E
:100CD000493A3946575E5C6A7F8A8E898587837B6D
:100CE0007573787E828B929394989CA4A8A6B5D1B4
:100CF000E6E7DEE1ECEDE7DCD2CCC4BCAE9C8F8253
:100D000072655B5045444A4D493B2F2E3137393887
:100D10003F5871777880838999A6B3BDC1C7C8C68B
:100D2000C8C6BFB7AEA59C9C9E978F93999B9B9678
:100D300093A2B4BAB19F989B99989A9592A09F87D5
:100D400078706E716B61554D545E58463D3B34333F
:100D50003530385E828A86818696A2A8A4979190C3
:100D60008984807E817F818273665F504A525248B7
:100D70003D3B3D3E4A63716A5C5554565B60636E11
:100D8000818A8C8C8A89857C78797E868C89889307
:100D9000A1ABB0AEAABDDDEDEEECE8E7E7E8E4D844
:100DA000C9BEB3A49B96836F655A524840444A4BD0
:100DB0004C473D363132363A4E7488898482868C6F
:100DC00099AAAFB9C5CAD1D2C5B9B8B5ABA19A97DE
:100DD000938F8D90979CA0ADBEC8CDC5B4AEA9A48D
:100DE000A5A0989A9B9A95897A6A5E5A565043387C
:100DF00040484239302823222E46576376817E812F
:100E0000878F9593938D817F8483796F7885848193
:100E100079695A50515B5D555258626D757A76709A
:100E2000726F636566574E5A71858C8880756D6DDB
:100E30006D6C717B8384878D94A0ABB2BAC4CFD51F
:100E4000DBE1D9CFD1D6CFBCB5B4A79B978A6E577B
:100E5000504D44404144474745433E3B40443D3A62
:100E60004E6B8291918B8D9197A4B5C4CDD4D6CD84
:100E7000BFB5B5BBBFB7A69C9B9A8F8D9DAFBCC7B6
:100E8000CDCECABFB5AAA2A4A79B8C8F938E887A19
:100E900064534D53594F3A2F343D3F352D2F333B3B
:100EA000474B4B5461696B6B707981868A897C747E
:100EB0007674696370869591817467636D767673D5
:100EC000798181807B7271727378756B6A6B6868E7
:100ED000737D7F7D797B7D7774716E7C939897A508
:100EE000ADADBCCACBCBD2D9DDDCD0C7CCD0CAC467
:100EF000BAB0A493816F5D514A463F383739464EA8
:100F00004A433D37373A3B373B5573828B9495992B
:100F1000AAB6B7B9BCBDBCBEC3BCB5B9BCB4A8A069
:100F2000A3A8A1A1B3BEC2C7C8C6C3C0B19E9B9EA1
:100F30009D978C86847A695E5550575E5B513F3130
:100F400037454E4D484B5A6564574A49576A6F6B4F
:100F50006E72757E847A695C5C63635F6A7A7D8099
:100F60007E70718790867B777777756E6A6A67681F
:100F7000727A7F7A706D6A6C7574717C84838688EE
:100F80007E726C7A98AAA7A4ADB8B8B6B6BDCAD21C
:100F9000D4D1CACBD0CDC8C4BCAFA39E978368526E
:100FA0004A484644434750534F46403A3433363C10
:100FB0004A59687F979C96A1B3B2A49FA8B5BDBEBD
:100FC000BEBBB5B6BBBFC3C6C1B1A6B1C3C4BAB878
:100FD000BDBBB6B9BDB29E8F8C8B8277706A6056EE
:100FE000555B605F574A404551524E525B5C5C61B5
:100FF000615849424E637076766D686F74716E6B9E
:1010000067635D60686A717D8080878F9187786F84
:101010006C6A6864605E61686D737572726B626938
:101020007473727A7A7271797E7670798892979FEA
:10103000ACAFA6A5AFB9BEC4CBC6C0C3C3BEBAB918
:10104000B5ABA09C9B8D6D564D4A4E535353525396
:10105000524D46423D363543545D6778858F9AA49C
:10106000ADAD9C96A2AEB2B4B4B3B3B9C3C7C5C458
:10107000BDB8BECCCBBAB1B7BBBABBBFC2BBA793DE
:101080008885827D79746C655F5A595755565A64C4
:1010900064534F5D645D5550515350505A62646AB9
:1010A0006C6C6C6B6A6D716C645F5C626766738A92
:1010B0009292918F9696836C5E5B5F656768685EBF
:1010C000585D606368686973776C6B757A746F7D5F
:1010D00093988F82818C98A5ADADACADB0B4BDC1F5
:1010E000BDB5B3BEC7BEB5B1A5958A8485806B5822
:1010F000515456534F4D4E4C443E382F28273551AE
:10110000625F687D8F9CA3AAB0ABA29C969CA7A9A6
:10111000ACB3BAC0C0B6ADAFB3B0B3BCBBB6B7BD6D
:10112000C5C4B9B5B6B5AFA1938D857A7A7D726A1B
:1011300064554D545C5951525859575B5D4D41426D
:1011400041465354555F63666F706C66605F5E5DC9
:1011500059534F5968788B989A96959696978468C4
:101160005E5B5D6B746B5B53585E605F5F5F63716A
:101170008081838C8B858A99A3A29C999EA5AAAB1A
:10118000AEB7BAB8BCBEBCB9B1AEB3BBC7C9BFB4C9
:10119000AA9D8E87877F72707572645452544D4633
:1011A00040372F2B2628354A5E67738FA1A2A5A54D
:1011B000A7B2B0A19EA8AFB5BCC0C1BAAEADB4B520
:1011C000B0ADABB3C2C6C4C9CBC6BEBDC5C3B4A85F
:1011D0009E948B7F7779777169585462615047503C
:1011E00060665D524F4C413D475255585E65696897
:1011F000646460575149474E4C3F3B4B687C7C7F51
:101200008C938F867F807C6B5B575C6569625552DF
:10121000514A4C535556565B6D7F8381868A8C9715
:10122000A1A7AFAAA3A9AFB2B7B7B2B5BDBBB9BDAD
:10123000BBB2ABB2C2C6BCAC9C918D8A817A7B79C1
:1012400078746A6763595147393233302E333D50D1
:10125000646E717C8994A1A6A6ABA99D9BA0A6AF44
:10126000B8BAB4AEA8A29F9F9D9B9FABB8BEC3C99E
:10127000C9C4BFBBBCB9ADA198928C847D7F7C6D85
:101280005D504D565A555257584E43404548485068
:101290005B62666767697075736E62585043465447
:1012A000554B4A536677797E8D8E847C787B796D39
:1012B00067696C71726A6058524C4C545A5E67721E
:1012C0007E89877E808E9AA1A8AFADA29FA4A9B285
:1012D000BBBDC0BCB2AAA4A4ABB5B7B3B2B0A39413
:1012E0008C8B867E766D6C7073736E665F564F4B1B
:1012F00045423E3A3E41485359606A74818D979CFD
:10130000A1A8ADACA4A2A9B4BEC2C1BBAFA79C9317
:10131000A0AEB5C1C8CACCCBC9C4BBB6B3B1AFA926
:10132000A0968A8787878374665C555A676A635D6F
:101330005A56544E4E555960666A6B686973787B8D
:10134000827F6D5F5D5A56545958525A656C767C4F
:101350007C797677767A807A6E6A6C6B67635D5794
:101360005455534E50555D6B7279868A8A8D959F80
:10137000A4AAAFACB0BDC0BEC1C2C1BBB2A9A4A932
:10138000B1B5B5B6AFA196908A8179756F67625F86
:101390006065615953534F47413F3D393737363DBB
:1013A00044495769777F81848E9FA8A29B979BA110
:1013B000A5ABAFAAA29C9798A1A7AAB3BCBFC5C86A
:1013C000C3B9B2B3B5B9BCB6ACA1969088817C75EF
:1013D0006B6361656D6C64605E5B5C5A56596163FA
:1013E000616364636368727A7E7B6F64605E554C90
:1013F0004B4D4F5A6C757C818180808180818988BA
:1014000077645A5857595D61636459484654616915
:101410006B6E7A84858795A09FA2ABB4B9BABDC123
:10142000C2BEB8B0A9A7A39FA3A9ACABA599949538
:101430008B817A726D6A6A7170665D595D646461F0
:10144000635E4F3C30354048515B67767C797C85E4
:10145000919FA7A59F999CA2A9B6BCBBB7B1ABA30E
:101460009EA9B5B7B9BABAC0C2BCB7B7B6B4B0A82E
:10147000A0A19C8E8B877B7D7F79726862615F659E
:101480006658515757534F4F51535A5F5E646D71B1
:10149000707071706B5E4B383344535F6C777D8036
:1014A000848987817D83897F6D665D4E505F6A7117
:1014B0006F63554E51595E60656D77859296949530
:1014C0009AA3AFB1ACAFBAC4C9C1B7B7B3AAA19719
:1014D00093949597938A857F79736D686A73797110
:1014E0006662656A6867696868645745393A444C5A
:1014F0005C6E717077787A848D939CA09C9DA9B561
:10150000BCC5CDD2D6CFBFB5ADABB5BCBBC0C3BFDC
:10151000BDBBB7B3B0AEAFABA09B98948F89888D9D
:1015200094907F726F6E6F6D6861544C53554B4C45
:1015300051545C5B575B6269737B776B6054473FC8
:10154000444F545C6E7D827E7C7F7E7D7A7C837B83
:101550006B5E514A4D56616667655E524B4A4F5805
:101560006472797D8487868E969EA7A9ABADB1BF44
:10157000CCCBC4BFBFB9A799969897999587787037
:101580007373717A828282827D7774716E767F79CD
:101590006E6B604A4349494C5963625C606C6D6A8A
:1015A000737F87909A9F9CA3BCD3D7D0CDCDC8BF63
:1015B000BCC1C0BDBBB4AFAEB1B3AEA6A1A1A5A224
:1015C000968C8786909D9F9A93928F7E7576726E89
:1015D0006B63524648473F3D455359555655505603
:1015E0006871695B4A3F3E3D434D53606C6A686B6E
:1015F000727C8586807971675C5249464F5D66646E
:101600005C5B5C544E4F555E6673797A8791898432
:101610008D97A0ABB2B7BBC1CFDBDAD4CAC2BDAF26
:101620009F9E9C9A98856E6869707E84848D908850
:101630007E787A7C808C918674675E524B525C63B4
:1016400066645F5C6370746E6D767E848E99A3B4FD
:10165000C7D2D3D2D4D5D4CBC1BEBFC1C1BAB1AE2B
:10166000B1B9B8AB9F999A9B948D898A9AB1BAB750
:10167000B2AA99867C797D80796950413D3A3939A1
:101680003E484F514E494A5563665A483D3B3B3BA5
:1016900044515E5F535762697981796E625D584F3C
:1016A00048423F47555D5C5B5D5A534C51595F72F0
:1016B000858A8A857F84837E85919EA8A8A2ABC3F4
:1016C000DBE6E2D9CFC6BEAE9E9B9FA29783746E27
:1016D000768C99958F8C8B868383828B9289817B84
:1016E00070655B5150585F625C54565B5A60635C36
:1016F0005860728490959FB8CCD2D9DBD5CCC0B756
:10170000B6BCC6CDCDC6BFB8B2AFAA9C918F918FE3
:10171000867C829EC4D6CFC2B6AAA29889888F8AB8
:1017200079604D453F3F45443E424D4D4644475705
:101730006866594E44454E4A475055565C626A7237
:10174000716D6B6863615B504742414C5757565609
:10175000544F48474F59708891928D827A7A7E779C
:101760007077848C8F97A8BDD9E6D9C8BDB8B4A9C5
:101770009D949398968C85868D989F9B95979A9526
:101780008D898E95978F847E776F655956585859F5
:10179000545462696561636A717C868C94A5B3BD9B
:1017A000C8CFCDC7C2C1BFC0C3C4C7CDC9C2BFB5F2
:1017B000A59E9E998F847E7F8592A6B5C7D4C8B119
:1017C000A19B9A958879777B746857474543414137
:1017D00039333A3E3E4651575D6468665B53504C20
:1017E00049484A505257646A68686D6C645D544653
:1017F00040434642434646443D373C4F6163697728
:101800007F858A837B7A7A73686572828D9BABBD94
:10181000CDD1C9B6A29C9F9F9B8C848F96999B8F9C
:101820008A949C9C9087898C8E9293989E988879B4
:101830006E655D55514B42475157646D6E7385938C
:101840008B81858FA1B0B0B7C6CED1D2D0CFCDC657
:10185000C4C3C0C4C6C1BAB0A49C9EA39D918C99B8
:10186000B3C1C0C2CDD3C8B5A89D938B817875751F
:101870006B5A524F484440382E282A354756595BF8
:101880006A7D7F73665B554F4642444E5A5F667170
:10189000737275746D635A585449403A3E495257B1
:1018A00052494F5856545A656D6B697379797E80E9
:1018B0007770778B9AA2A8ABB5C0B9AFAAA1A0A543
:1018C000A09893959E9C9595948E8A8A8E959DA5B9
:1018D000A7A39A9595938E847767554641403F48D4
:1018E000575A5D6A77858A898D8E90989FA7ABAE8F
:1018F000B5C2CCCAC1B9B3B0AEACADADA69E999AD3
:101900009FA5ABACA8A6ACB9C1C2C3C1C1C9D0CD5B
:10191000C1B1A2937E6D6868655A4A43433E37322F
:1019200033435760676660626A747D796E62574EB2
:101930004B4D50545758606E7878716E7374685B75
:10194000534A4850555A6360504A4A4A4A46424CA4
:101950005D605D5F626971757C83838993989DA3E7
:10196000ABB8C4C4BBB3AEA9A1928A90968F898B41
:10197000898B92939BA7A7A39C9391928F8B8B802B
:101980006D635A4A413F435361605D65737C83894F
:1019900096A4A9AEB2ACA7A4A5B4C2BDB3AEA59D92
:1019A0009B9991939E9E979699A4AAA5ABB9BBBB10
:1019B000C0C3C1C1CEDCDFD2BBA999847262524FD1
:1019C000544C3D3632333B3E4C64727269646568F8
:1019D00069686F7168635E52473F393B49565C6086
:1019E000636668697078746B60554F4D54595858E8
:1019F000544B44434241434A5D685B514F55656EC9
:101A0000798A93969B9FA5B2BCC0C4C4BDBBB6AA3D
:101A10009D938E909CA19D9B9B9C9F9A98A2AFB2F8
:101A2000AEA59F988D8A90948D7B68594942495301
:101A30006170716D6E747F91A4B1B8B8B3ABA099A9
:101A4000A0AAADB1AFA29DA3A19B99999F9F93918D
:101A5000999D9C9DA4ADB6C3CDCFD1D7DBD3C9C5CD
:101A6000B9A9998168554D5056584F4137322F3694
:101A70004C6673746F6A67635D5C6469635C4F3E58
:101A80003531343E4A565651555E656A6C6C69650F
:101A9000605C59544F525959544E46423F3A3F4860
:101AA0004D4F4A474C565F62697B90A4B3B5B7BBB4
:101AB000B5B2B4B8BFBCAEA7A19B9999A0A8A39D8D
:101AC0009A9691898B9CAFB6B2ABA7A2A09C969533
:101AD00090826E5F58585E6474857F737279858FCB
:101AE00099A8B4B9B2A9A7A4A3A7A6AAB4B4B3B835
:101AF000B9B0A599969E9F9A999EA29C97A3B5C9A5
:101B0000D9E1E2DDD2C7BBB4AEA18D77675D575492
:101B100054544C3C2C211E1E2D4A6271716259593D
:101B20005C5F5D5A5851494748484B4E4B4E575C95
:101B30005F676A635B5F625E6061616265665E5695
:101B4000524E4F514D454141454C515454565F62A0
:101B5000677F99A9BAC4C2BDB7AFABB3B8B5B5B4C6
:101B6000A99D999C9B979596928D89817D8C9AA130
:101B7000A9ACB0B9B7ADA09184796F6B6867717E7D
:101B80007D736C676A737B838D99A1A4A7A8A4A1B8
:101B9000A6AEB3B8C1C1BEC1BEAF9F948E93A0A87C
:101BA000AAA59B8F8FA1ACB6D2E3DCD5D3CEC1B5AD
:101BB000AB9D938A7E7468574C443E352A211E2281
:101BC000355465625C58555B67695F565053555193
:101BD0004B4A515B5A585D606062645F5B5F5D5663
:101BE0005D656971737067574F514F4C483D383A86
:101BF00040474A4A4C50555E728C9492A5BBBBB686
:101C0000B8BABBBFC8C9BAADA9A19C9B9795999812
:101C1000928D857B7A8A9DA2A8B6BCB8B6B3A590F2
:101C200085867F777779807E71675D565763757F8C
:101C30008A9A9C918D939DA7B3BEC1C1C1BDB5AF1A
:101C4000AAA0978E868999A59E9491898491A0AC2B
:101C5000C2D5DBD9D3CABDB3B4B5AA9C8C7A6957B7
:101C6000433A392C1D1B1F25344B5551555B5C6085
:101C70006A70665C62665D54535A636E77736A6419
:101C80005B53575D5D606160666C6E727374716505
:101C900061655C534D443F424344494C494B565E59
:101CA00066758089A2BCC4C3C0BFBEB9BDC1B9B28C
:101CB000AA9E9897979695918B8581828894A2ACDD
:101CC000B5B9B9B9B7B5AE9E9693877C767273767F
:101CD00073685A4E4850626F7D8C90909BA8AFB845
:101CE000C1C7CAC7C7C6BCB2ADA499919095999B0C
:101CF0009A969086808897A9C6DDE2E0D4C6C0BED9
:101D0000C3C9BEA78E786554494237271D1F2427B3
:101D10002E3F4E5960626466686B68666B675A5204
:101D2000545A6773726C6054524B464A505558600F
:101D30007077787B78726C686B6A5E4E4140423E89
:101D40003E403F4041413F3A4459677492B3BDB968
:101D5000B8BAB8BAC0C1BBAC9D9A989391908D8A1D
:101D60008989847F899BA3A7B0BAB7AFABA49E9B98
:101D700097969287797072756F62554D4B4A4F5A9C
:101D8000697B8893A2B3C1C7C8C7C7C8C8C8C2B84F
:101D9000ADA49B979B9C918D949081737683899C35
:101DA000C3DEE2DED3C8C9D0D6D4C5B099806652AE
:101DB00046403528272B292529394B575A606D7104
:101DC0006B696C7071726F6965687578716D604E62
:101DD00048484749494B5A6D787C7E80796B666CE0
:101DE0006F6D695F4F44413E3D3C3C3F3E3834326D
:101DF0003541536C8CA7B4C0C9C2BDC2C8CCC4B3F2
:101E0000A8A19D979091908C919A9C9A9DA3A6AF22
:101E1000B8BCBEB9AEA29D9FA5ACAA9D8A7A7B7BB9
:101E20006B5F5C534947505961728CA4B2BAC4CB02
:101E3000C8C4C6C7C3C2C4BFB6AEADAAA1988C7E83
:101E40007775747372767F90B1CFDCE4E2D4CED430
:101E5000D4CDC1A9917E675140353133332E2B2526
:101E600026303944545E6364606069737F8A888178
:101E70007D7B7B786E6153473E3C3F46556063698E
:101E80007073736A5F606666666764594F4B423869
:101E900035332F2723232427323D486082A1B8C53C
:101EA000C6C2BFBAB7B9BAB7B5AFA59C9B9E9FA231
:101EB000A6A7A5A3A5A6A5ACB5AFA8A59F9CA1ABB9
:101EC000B2B2AC9D8C837B716D6A5C4E46465268A3
:101ED0007E8B919CACB5B9B9BCC0BFBDBBB7B8B91E
:101EE000BCC1BDA9917F7166646D737378828C9E4D
:101EF000B8CFE1E9E9E3D6C8C0BDB09B87735F4EB8
:101F0000403B3D362C2928282B2E3340515B616500
:101F10006A707A858989858083827E7C7160513F71
:101F200031313C506368625D5F605B5B656E747706
:101F3000746E6560605F5644342B2623211F242E67
:101F400037434B536E90A3AEB5B2B0ACA5A9B0B2B7
:101F5000B6B8B6B0A9A8ADAEABA9A7A5ACB2A9A5B5
:101F6000AAA9A19D9D9FA7AEAC9F96948F848187BF
:101F7000857A726856556475889492939EA8B3BA10
:101F8000BABCC2C1B8B3BAC5C6C1BDAD927B6B60A5
:101F90006070838E97A09993A2B9CFDAD9CFC4B9D4
:101FA000AA9A8F8374675E544B4640352C2C333588
:101FB000383E414B5C676966676A6E777B757578FA
:101FC000746F7474685A4A35292E3D4A57615C53C0
:101FD000545B636D787F827F7672716C645E584B60
:101FE0003A2E271F1823363E475353577494A4B0F4
:101FF000B5ADA8A8A7ADBCC4BFB9BBC3C4BDB9B378
:10200000AEB1B8BEC1BDAC9C9DA19D9B9B97969661
:102010009594918A83828A95978B7A6A61676E73A9
:102020008293918D9EB7BCB7B1ABACAFB1B9BEBD19
:10203000B8B2AEA697857B7C828F9FA8ABAAA49DE1
:10204000A2B7CBCFCABFB3A997867D6F5D55545356
:102050004E453C393C3E3D3F4A53585C616C716A89
:1020600064635F616C716F6E6A60595954463A31AE
:102070002D353C44545D5F61646C7477797B797273
:102080006C6F6F63554B48463D32281E1E262E3A14
:1020900049525B67778FA1A5A7ABA9A3A8B3B8BA2C
:1020A000B7B0B2B5B0ACB2B9B9B5B5BBBFBCB5AAE3
:1020B000A3A29FA0A39A8B7F828E95928A868B92F1
:1020C0009186807E7B76737A8E9DA3A6ABB2B5B2E5
:1020D000ADACACA7AAB9BCAD9E989B9D978C8586EC
:1020E0008D90919BAFBBBAB1B1BDC4C1BEB7A79231
:1020F0007F736E6B625A57524740424B53514F5356
:102100005D6B726A646B6E6D6E6A65605C60635B6A
:1021100050473F3D3F3D3B3C3D39343D58747E790F
:1021200073767B8288837B78726F6D62554D4841F0
:10213000362B221C1C232D3F57697170758DA4AA64
:10214000ABA9A2A1A4A4A6A8A9A9A8A6A4A7AFB216
:10215000ADACAEB5C0BEB4ACA7A49E9A97918B832C
:102160008186847C8088878889817D83898A84852B
:102170009AACACA9ACAEAEB4B9BABBB8B4B7B5AB57
:10218000A7A49F9A9086888C8A8C8E97B2C2BFB97A
:10219000B4BAC2BDB5AB9B897B7470706F665D5578
:1021A0004D48474E56545668797B71645E62696B40
:1021B0006964605D564F4E483A3436394145413E78
:1021C0003C3C3E465C706F6A727E838282807B7983
:1021D000797A776E6355483F362C221B1F2B39477F
:1021E0005E70706D6F80939493999B9A96969A9D6A
:1021F0009DA0A7A8A6ABB0ABA3A1A7B2C1C4B8AF1E
:10220000A6A3A6A29C95897E797D848A89848489E7
:1022100090928B8A8F9294969DA7A49E9FA6B0B60B
:10222000BCC1C4C6C6C5C3B8A9A09B95979C968CD3
:10223000898A8E93A4B7BBB5ADA9ABA599948E82BC
:1022400076707477736F6C6357504E505462727827
:102250007D7D7167625E666B6666675E4E42434671
:10226000423D37384650504C433E3A35455C6571E7
:102270007B7A7B7F838585848182827B6D5C4C3F0A
:102280003734302B2E3C474C5F6E695F595E707857
:102290007C89929089858B9299A0A7A9A6A5ABAAC3
:1022A000A4A6AAACB0B5B5B1ABA5A39D9186848513
:1022B0007D778391918E8E8B8B9196989BA19F9821
:1022C0009CA7ADAFAEAAAFB5B9BFC7CDCBBFB6B1B6
:1022D000ACA9A4A1A5A7A39C9A9E9D9A9EA8AFACC9
:1022E000A39B9C9E97918F897F7773757D7F71608B
:1022F00054515558627B857D7D80796F625A5C5E52
:102300005C57575B5549423D3D3C3732313A423D7F
:10231000332E2E2F364A63737474787977787C82E3
:10232000847F756C6C6B5D4D413D3B363B4B53552B
:102330005B605E5C5B585D73868783888E8D8A8C5C
:10234000959EA19E999FABA9A6AEB2ACABAEB1B122
:10235000A89C938983827E80898F8A84878D8D85CE
:10236000838A9194969CA5A9A9AEB5B9B8AFA9AF37
:10237000B6B8B9BDBFBAB2ABA7ABB0B0ABADB3AF37
:10238000ACB0ADAAACAEB0B5B6ADA29C9A9A9186EF
:102390008686807773726A605955576275878B8617
:1023A0008687877F70665F5E6365615F5F5A5244B0
:1023B000342E2D28232A322F2C2F2D2E415B6A7389
:1023C0007C7B757376757A7E7A787A776E645A4EEE
:1023D000443F39353E4F56575D61605D58565D70DC
:1023E00082827E81888F9493908F8E969FA2A8AAD6
:1023F000ABAEAEAAA9AEB2B1AFA798918D828594CB
:102400009C9B978D86868179797F828895A6B2B8C4
:10241000C1C3C0BFB8AEACAFB4B7B8B5B2B3ACA36C
:10242000A3AAACA9A8ACABA8A7A9A7A2A2A5AAAE2B
:10243000AEA89B918D897E73757D7D766C645B4FB4
:102440004A4F5A6D808C92959993867F766B696D11
:10245000706B62605E5448392B241E1615191E28B5
:102460002E2A30465B68717E8884807F7E7E7E81E6
:10247000898A847D71665C4D4339343E4850595A8F
:102480005D5F57596363626E7B817F7D7F8589893C
:102490008C9497989C9D9EA5ACACA6A2A6AAA6A239
:1024A000A29D989591929398A2A49D968C81787004
:1024B000696C7B91A3AAB1BAC0C3C0BDBBB6B5B5A8
:1024C000B5BCBFBDBDB6ADAEB0B0B1B2AEA5A0A3F8
:1024D000A7A49E9DA2A5A09B998E85898C847C74BF
:1024E0006E6D6C6A66615B5753555E728791929010
:1024F0008E8C82777371706D6A6C675B5750433650
:102500002A1D1209050D1B26303638445B6E75777F
:10251000797B8186878A9090908E8578695C534814
:102520003E3A393D464E535C6365686B6A6B6F7724
:102530008187878381848586888E9596959699A1D3
:10254000A9A9A39D9D9F9C989BA0A1A4A9AAACAC5E
:10255000ADADA6988980776D6D7986919CA0A1A676
:10256000AEB8BFBDBAB9B2ADB6C1CBCCC6C5C4C09A
:10257000BBB6B4B1AFADA8A6A9ABAAA9A8A59A8FBE
:1025800086807E8285827C7165656662626261603A
:1025900063686C77838684828487837B7979756EA0
:1025A00069635F59555145372B1D110C101A212AAB
:1025B000373D434D5B6B76787D8082868C91928F20
:1025C0008E887C6F6050453E3B39343238414A56E4
:1025D000606D7400000007000201000003040600A3
:1025E00000000000000000010204081020408001EB
:1025F000020408102001020408102004040404044A
:1026000004040402020202020203030303030300A0
:1026100000232629000025282B000024272A112426
:102620001FBECFEFD4E0DEBFCDBF11E0A0E0B1E030
:10263000E0E5FCE202C005900D92A430B107D9F7A5
:1026400011E0A4E0B1E001C01D92A231B107E1F7B1
:102650000C94AE130C94000061E0809100010E9484
:10266000541580E090E190930D0180930C01E6EB0E
:10267000F0E080818F798083E0EBF0E080818360FF
:102680008083A1EBB0E08C91877F8C938081806800
:102690008F7B808380818F7C80838C91897F816018
:1026A0008C93E8E6F0E0E4918E2F9927982F882705
:1026B0009093050180930401F894A1E8B0E08C9117
:1026C0008F7E88608C93E0E8F0E080818C7F80834F
:1026D0008C91897F81608C9380ED97E09093890045
:1026E00080938800EFE6F0E0808182608083109222
:1026F00008011092090110920A0110920B017894BE
:102700000895892F99278093B300089529B12370E4
:10271000892F99278C7F282B2BB9089561E0809110
:1027200002010E9454158AB18E6F8AB980E094E04C
:1027300090930D0180930C010E942C13089580E06A
:102740000E94E51453E0880F991F5A95E1F78050D5
:102750009C4F90930D0180930C010895CFEFD4E02E
:10276000DEBFCDBF0E949B140E948E130E949F1358
:10277000FDCF6130710521F06230710541F405C073
:10278000892F99278093B30008950E948613089596
:102790001F920F920FB60F9211242F933F934F93D6
:1027A0005F936F937F938F939F93AF93BF93EF93B9
:1027B000FF938091080190910901A0910A01B091C5
:1027C0000B01ECE0B695A79597958795EA95D1F71B
:1027D000FC01FF70F0930701E0930601E859FF4FF9
:1027E00084919927982F882790930501809304015D
:1027F00061E070E00E94B91362E070E08091040132
:10280000909105010E94B9132091080130910901AE
:1028100040910A0150910B0180910C0190910D01A2
:10282000AA27BB27280F391F4A1F5B1F20930801C7
:102830003093090140930A0150930B01FF91EF91EE
:10284000BF91AF919F918F917F916F915F914F91C8
:102850003F912F910F900FBE0F901F9018951F92D0
:102860000F920FB60F9211248F939F93AF93BF9344
:1028700080910E0190910F01A0911001B091110172
:102880000196A11DB11D80930E0190930F01A0939D
:102890001001B0931101BF91AF919F918F910F9053
:1028A0000FBE0F901F90189560910E0170910F014F
:1028B000809110019091110127E0660F771F881F0A
:1028C000991F2A95D1F72DE730E040E050E00E94B3
:1028D0000616CA01B9010895AF92BF92CF92DF9256
:1028E000EF92FF920F931F935B016C010E945414AF
:1028F0007B018C010E9454146E197F09800B910B8F
:102900006A157B058C059D05A8F31F910F91FF901B
:10291000EF90DF90CF90BF90AF900895019751F066
:10292000880F991F880F991F02972FB7F894019766
:10293000F1F72FBF0895789410920E0110920F01B5
:10294000109210011092110184B5826084BD84B58B
:10295000816084BD85B5826085BD85B5816085BD9A
:10296000EEE6F0E0808181608083E1E8F0E0808144
:1029700082608083808181608083E0E8F0E08081F4
:1029800081608083E1EBF0E0808184608083E0EB14
:10299000F0E0808181608083ECE7F0E080818F77D8
:1029A0008083808180648083EAE7F0E080818460B6
:1029B0008083808182608083808181608083808148
:1029C000806880831092C100089590917C00907F70
:1029D0008F70982B90937C0080917A008064809314
:1029E0007A0080917A0086FDFCCF2091780080915A
:1029F00079009927982F88273327822B932B0895C6
:102A00001F93CF93DF93182FEB0161E00E945415C1
:102A1000E12FFF27ED52FA4D8491833051F48091DC
:102A20008000806880938000D0938900C0938800E4
:102A300037C0843051F480918000806280938000A0
:102A4000D0938B00C0938A002BC0813029F484B5C9
:102A5000806884BDC7BD24C0823029F484B58062FB
:102A600084BDC8BD1DC0863041F48091B00080682F
:102A70008093B000C093B30013C0873041F48091BD
:102A8000B00080628093B000C093B40009C0C03829
:102A9000D10514F460E001C061E0812F0E94BB15F4
:102AA000DF91CF911F910895282F3327C9018951B4
:102AB0009A4DFC01949125503A4DF9018491882357
:102AC00081F0E82FFF27E75EF94DE491FF276623A9
:102AD00029F4808190958923808308958081892BB2
:102AE00080830895482F5527CA018D529A4DFC01C5
:102AF0002491CA0189519A4DFC01949145505A4D37
:102B0000FA0134913323A1F1222331F1233021F44E
:102B1000809180008F7705C0243031F4809180004F
:102B20008F7D8093800018C0213019F484B58F7791
:102B300004C0223021F484B58F7D84BD0DC02630C1
:102B400021F48091B0008F7705C0273029F480915F
:102B5000B0008F7D8093B000E32FFF27E15FF94D38
:102B6000E491FF278081892319F081E090E00895A6
:102B700080E090E00895482F5527CA018D529A4D64
:102B8000FC012491CA0189519A4DFC019491455050
:102B90005A4DFA0134913323C1F1222331F123300C
:102BA00021F4809180008F7705C0243031F480912A
:102BB00080008F7D8093800018C0213019F484B587
:102BC0008F7704C0223021F484B58F7D84BD0DC081
:102BD000263021F48091B0008F7705C0273029F48A
:102BE0008091B0008F7D8093B000E32FFF27EC5ED3
:102BF000F94DE491FF27662329F48081909589237C
:102C0000808308958081892B80830895A1E21A2E04
:102C1000AA1BBB1BFD010DC0AA1FBB1FEE1FFF1F80
:102C2000A217B307E407F50720F0A21BB30BE40BD0
:102C3000F50B661F771F881F991F1A9469F7609517
:102C40007095809590959B01AC01BD01CF010895D1
:042C50000B000D0068
:00000001FF
