:100000000C946A000C9492000C9492000C94920050
:100010000C9492000C9492000C9492000C94920018
:100020000C9492000C94CB000C9492000C949200CF
:100030000C9492000C9492000C9492000C949200F8
:100040000C94C7030C9492000C94D3050C9492006A
:100050000C9492000C9492000C9492000C949200D8
:100060000C9492000C94920005A84CCDB2D44EB9D9
:100070003836A9020C50B9918688083CA6AAAA2A4B
:10008000BE000000803F000024272A000025282B06
:1000900000002326290404040404040404020202C8
:1000A00002020203030303030301020408102040B9
:1000B0008001020408102001020408102000000042
:1000C0000700020100000304060000000000000019
:1000D00000001F0211241FBECFEFD4E0DEBFCDBF52
:1000E00011E0A0E0B1E0EEE9F0E102C005900D9270
:1000F000A632B107D9F713E0A6E2B1E001C01D9224
:10010000A13DB107E1F710E0C4EDD0E004C02297B3
:10011000FE010E944908C23DD107C9F70E9418029A
:100120000C944D080C940000809128018823E1F381
:100130005F9A109228018091300190913101FC0169
:10014000ED5BFE4F208120932A01019691709093E0
:1001500031018093300180913201909133010196F9
:10016000909333018093320180509C4364F010924D
:10017000330110923201109231011092300185B199
:1001800090E2892785B980912A018093B3008BB1D1
:1001900080588BB908951F920F920FB60F921124B9
:1001A0008F939F93289A90E080912601882309F4E9
:1001B00091E0909326019923C9F190E08091270165
:1001C000882309F491E090932701992351F08091BD
:1001D00079008093290180917C00816080937C006C
:1001E0000CC08091790080932A0180917C008E7FE1
:1001F00080937C0081E08093280180912B018F5FA8
:1002000080932B0180912B01815080932B01809151
:100210002B018F5F80932B0180912B018150809364
:100220002B0180917A00806480937A009F918F9156
:100230000F900FBE0F901F9018954F925F926F9284
:100240007F928F929F92AF92BF92CF92DF92EF9266
:10025000FF920F931F93CF93DF9360911B017091D7
:100260001C0180911D0190911E019B01AC010E9417
:10027000110620E030E040E05BE30E94F2063B0123
:100280004C01609334017093350180933601909353
:10029000370180914201A0903801B0903901C0909F
:1002A0003A01D0903B01E0903C01F0903D0100917B
:1002B0003E0110913F0193E4492E91E0592EC0E098
:1002C000D0E023C0C801B7010E94550720E030E00C
:1002D0004EEF52E40E94F2065B016C01A40193010F
:1002E000C801B7010E9411067B018C0120E030E0BB
:1002F0004EEF52E4C601B5010E9411060E94750638
:10030000862FF20161932F012196F2E0C030DF07C2
:10031000CCF280934201A0923801B0923901C09290
:100320003A01D0923B01E0923C01F0923D010093F2
:100330003E0110933F01D0934101C0934001DF91F2
:10034000CF911F910F91FF90EF90DF90CF90BF90D2
:10035000AF909F908F907F906F905F904F90089597
:100360000F931F9361E0809117010E94A40461E044
:10037000809119010E94A40403E413E040E051EECF
:1003800060E070E0C8010E94330260E071E0C801E3
:100390000E9487020E941D01EAE7F0E080818B7FC6
:1003A0008083808182608083808181608083ECE7AC
:1003B000F0E080818062808380818064808380819E
:1003C0008F77808380818E7F808380818D7F808303
:1003D00080818B7F80838081877F8083E0EBF0E06A
:1003E00080818F7B80838081806880838081816031
:1003F0008083808182608083E1EBF0E08081877F71
:10040000808380818160808380818D7F80838081F3
:100410008B7F8083239AEEE6F0E080818E7F80835D
:10042000E0E7F0E08081816080831F910F91089563
:100430000E946A040E94B0010E949400FDCF83E2F2
:1004400091E090934403809343030895862F0E9484
:10045000920508950E94CA0508950E94AB0508956B
:100460000E949A050895CB01BA010E94590508958A
:10047000DC01ED91FC910190F081E02D099508954A
:10048000DC01ED91FC910190F081E02D099508953A
:100490000F931F93CF93DF938C01EB0109C021963B
:1004A000D801ED91FC910190F081E02DC8010995F2
:1004B00068816623A1F7DF91CF911F910F91089575
:1004C0000F931F938C01DC01ED91FC910190F08161
:1004D000E02D6DE00995D801ED91FC910190F0813E
:1004E000E02D6AE0C80109951F910F9108950F93BF
:1004F0001F938C01DC01ED91FC910190F081E02DC6
:100500000995C8010E9460021F910F9108950F93F1
:100510001F938C010E944802C8010E9460021F9133
:100520000F9108950F931F938C01DC01ED91FC91C5
:100530000190F081E02D0995C8010E9460021F9191
:100540000F9108952F923F924F925F926F927F92F8
:100550008F929F92AF92BF92CF92DF92EF92FF92D3
:100560000F931F93DF93CF93CDB7DEB7A0970FB64E
:10057000F894DEBF0FBECDBF1C016A017B0141159F
:1005800051056105710549F4DC01ED91FC91019083
:10059000F081E02D60E3099554C08824992454012A
:1005A000422E55246624772401E010E00C0F1D1F15
:1005B000080D191DC701B601A30192010E94F6079B
:1005C000F80160830894811C911CA11CB11CC70117
:1005D000B601A30192010E94F607C901DA016C017C
:1005E0007D01C114D104E104F104F1F681E0E82EAB
:1005F000F12CEC0EFD1EE80CF91C3E010894611C68
:10060000711CD501C4010197A109B1096C01C81879
:10061000D90814C0F601EE0DFF1D60816A3010F498
:10062000605D01C0695CD101ED91FC910190F081A8
:10063000E02DC10109950894E108F1086E147F04CA
:1006400049F7A0960FB6F894DEBF0FBECDBFCF918D
:10065000DF911F910F91FF90EF90DF90CF90BF90AF
:10066000AF909F908F907F906F905F904F903F9052
:100670002F9008952AE00E94A20208950F931F93DD
:100680008C010E943A03C8010E9460021F910F91E1
:100690000895AB0160E070E00E943A0308950F9363
:1006A0001F938C01AB0160E070E00E943A03C80127
:1006B0000E9460021F910F910895EF92FF920F9395
:1006C0001F93CF93DF93EC017A018B0177FF0FC06B
:1006D000E881F9810190F081E02D6DE20995109596
:1006E0000095F094E094E11CF11C011D111D2AE01D
:1006F000B801A701CE010E94A202DF91CF911F9104
:100700000F91FF90EF9008950F931F938C010E941B
:100710005D03C8010E9460021F910F910895AB0113
:10072000662757FD6095762F0E945D0308950F930D
:100730001F938C01AB01662757FD6095762F0E94B1
:100740005D03C8010E9460021F910F910895DC01B2
:100750002115310541F4ED91FC910190F081E02DDE
:10076000642F099508952A30310519F40E945D031C
:1007700008950E94A20208950F931F938C010E9476
:10078000A703C8010E9460021F910F9108951F9254
:100790000F920FB60F9211242F938F939F93AF93C5
:1007A000BF938091450390914603A0914703B09178
:1007B00048038050904CAF4FBF4F809345039093B8
:1007C0004603A0934703B093480327C08091450395
:1007D00090914603A0914703B091480380589E43EF
:1007E000A040B0408093450390934603A0934703F5
:1007F000B09348038091490390914A03A0914B0321
:10080000B0914C030196A11DB11D809349039093B3
:100810004A03A0934B03B0934C03809145039091FE
:100820004603A0914703B091480381589E43A040DE
:10083000B04060F6BF91AF919F918F912F910F9033
:100840000FBE0F901F9018958FB7F8942091490311
:1008500030914A0340914B0350914C038FBFB90133
:10086000CA010895EF92FF920F931F937B018C01B1
:100870008FB7F8944091490350914A0360914B031C
:1008800070914C038FBF2FB7F894809149039091DA
:100890004A03A0914B03B0914C032FBF841B950BCF
:1008A000A60BB70B8E159F05A007B10760F31F912C
:1008B0000F91FF90EF900895019759F0FC01EE0F12
:1008C000FF1FEE0FFF1F32978FB7F8943197F1F7A4
:1008D0008FBF0895789484B5826084BD84B58160AB
:1008E00084BD85B5826085BD85B5816085BDEEE638
:1008F000F0E0808181608083E1E8F0E080818260C7
:100900008083808181608083E0E8F0E08081816085
:100910008083E1EBF0E0808184608083E0EBF0E0B5
:10092000808181608083EAE7F0E080818460808359
:100930008081826080838081816080838081806803
:1009400080831092C1000895282F30E0C901875597
:100950009F4FFC0194912B563F4FF90184918823BE
:1009600081F0E82FF0E0EA57FF4FE491F0E06623D2
:1009700029F4808190958923808308958081892B33
:1009800080830895482F50E0CA0183549F4FFC0193
:100990002491CA0187559F4FFC0194914B565F4F9C
:1009A000FA0134913323C1F1222331F1233021F4B0
:1009B000809180008F7705C0243031F480918000D1
:1009C0008F7D8093800018C0213019F484B58F7713
:1009D00004C0223021F484B58F7D84BD0DC0263043
:1009E00021F48091B0008F7705C0273029F48091E1
:1009F000B0008F7D8093B000E32FF0E0E557FF4F0C
:100A0000E491F0E0662329F4808190958923808326
:100A100008958081892B80830895482F50E0CA0172
:100A200083549F4FFC012491CA0187559F4FFC01BD
:100A300094914B565F4FFA013491332319F420E01F
:100A400030E035C0222331F1233021F48091800041
:100A50008F7705C0243031F4809180008F7D8093A2
:100A6000800018C0213019F484B58F7704C022307B
:100A700021F484B58F7D84BD0DC0263021F4809192
:100A8000B0008F7705C0273029F48091B0008F7DAA
:100A90008093B000E32FF0E0E057FF4FE491F0E0E7
:100AA000808120E030E0892311F021E030E0C901AD
:100AB0000895EF92FF920F931F937B018C0122E028
:100AC00030E040E050E00E941808205C3D4B404F71
:100AD0005F4FCA01B901A80197010E941808C90116
:100AE000DA010197A109B109292F3A2F4B2F552778
:100AF00047FD5A950196A11DB11D2093C500815057
:100B00008093C400E1ECF0E080818061808380818B
:100B1000886080838081806880831F910F91FF901F
:100B2000EF900895982F8091C00085FFFCCF90939F
:100B3000C600089580914D0390914E0380589F4FB9
:100B400020914F0330915003821B930B60E870E0BB
:100B50000E94E307089540914F0350915003809104
:100B60004D0390914E038417950719F42FEF3FEF33
:100B70000FC0FA01EF5AFC4F2081CA01019660E8CC
:100B800070E00E94E3079093500380934F0330E09E
:100B9000C901089580914F039091500390934E03A3
:100BA00080934D0308951F920F920FB60F92112458
:100BB0002F933F934F935F936F937F938F939F9365
:100BC000AF93BF93EF93FF934091C600E0914D0325
:100BD000F0914E03CF01019660E870E00E94E307B8
:100BE0009C0180914F03909150032817390739F0E9
:100BF000EF5AFC4F408330934E0320934D03FF91F7
:100C0000EF91BF91AF919F918F917F916F915F9184
:100C10004F913F912F910F900FBE0F901F901895FD
:100C20005058BB27AA270ED0A3C094D030F099D03B
:100C300020F031F49F3F11F41EF489C00EF4E095CA
:100C4000E7FB7FC0E92FA5D080F3BA1762077307CF
:100C50008407950718F071F49EF5BDC00EF4E09579
:100C60000B2EBA2FA02D0B01B90190010C01CA0166
:100C7000A0011124FF27591B99F0593F50F4503E11
:100C800068F11A16F040A22F232F342F4427585F03
:100C9000F3CF469537952795A795F0405395C9F71B
:100CA0007EF41F16BA0B620B730B840BBAF09150D3
:100CB000A1F0FF0FBB1F661F771F881FC2F70EC072
:100CC000BA0F621F731F841F48F487957795679545
:100CD000B795F7959E3F08F0B3CF9395880F08F02E
:100CE0009927EE0F9795879508955BD088F09F57C9
:100CF00090F0B92F9927B751A0F0D1F0660F771F68
:100D0000881F991F1AF0BA95C9F712C0B13081F047
:100D100062D0B1E008955FC0672F782F8827B85F51
:100D200039F0B93FCCF3869577956795B395D9F7A8
:100D30003EF490958095709561957F4F8F4F9F4FB2
:100D4000089597F99F6780E870E060E008959FEF4D
:100D500080EC089500240A94161617061806090652
:100D6000089500240A941216130614060506089521
:100D7000092E0394000C11F4882352F0BB0F40F4A9
:100D8000BF2B11F460FF04C06F5F7F4F8F4F9F4FE9
:100D9000089557FD9058440F551F59F05F3F71F06B
:100DA0004795880F97FB991F61F09F3F79F08795D2
:100DB0000895121613061406551FF2CF4695F1DF5B
:100DC00008C0161617061806991FF1CF86957105EB
:100DD000610508940895E894BB2766277727CB011F
:100DE00097F908950BD0C4CFB5DF28F0BADF18F01B
:100DF000952309F0A6CFABCF1124EECFCADFA0F325
:100E0000959FD1F3950F50E0551F629FF001729F9F
:100E1000BB27F00DB11D639FAA27F00DB11DAA1FBE
:100E2000649F6627B00DA11D661F829F2227B00D0B
:100E3000A11D621F739FB00DA11D621F839FA00D96
:100E4000611D221F749F3327A00D611D231F849FE6
:100E5000600D211D822F762F6A2F11249F5750403D
:100E60008AF0E1F088234AF0EE0FFF1FBB1F661FD8
:100E7000771F881F91505040A9F79E3F510570F091
:100E800060CFAACF5F3FECF3983EDCF38695779571
:100E90006795B795F795E7959F5FC1F7FE2B880F8C
:100EA000911D9695879597F908959F9305D00F907A
:100EB00007FCEE5F31C04BCF74DFE8F3E894EFEF4F
:100EC000BB273FE048EC5FE76B3D7307840795075E
:100ED00008F1FF279F57B25A6A4D7F40894CF04076
:100EE00032F4BE556542704F8643FF4F0894EE1FA3
:100EF000915030F0BB0F661F771F881FFF1FEBCF8D
:100F00009EE7882332F0BB0F661F771F881F9A95D4
:100F1000C1F79395E09511C0EF93E0FF06C0A2EAF8
:100F20002AED3FE049EC5FEB8DDE22DF0F9003946A
:100F300001FC9058E8E6F0E010C09F3F49F0915066
:100F400028F4869577956795B7959F5F80389F4F72
:100F5000880F9695879597F908959F938F937F9320
:100F60006F93FF93EF939B01AC013CDFEF91FF91F7
:100F700005D02F913F914F915F9134CFDF93CF9365
:100F80001F930F93FF92EF92DF927B018C01689485
:100F900005C0DA2EEF0132DFFE01E894A59125911C
:100FA000359145915591AEF3EF014CDEFE0197016D
:100FB000A801DA9479F7DF90EF90FF900F911F91DD
:100FC000CF91DF91089597FB092E07260AD077FD70
:100FD00004D049D006D000201AF4709561957F4F57
:100FE0000895F6F7909581959F4F0895A1E21A2EE6
:100FF000AA1BBB1BFD010DC0AA1FBB1FEE1FFF1FBD
:10100000A217B307E407F50720F0A21BB30BE40B0C
:10101000F50B661F771F881F991F1A9469F7609553
:101020007095809590959B01AC01BD01CF0108950D
:1010300097FB092E05260ED057FD04D0D7DF0AD026
:10104000001C38F450954095309521953F4F4F4FF7
:101050005F4F0895F6F790958095709561957F4F55
:101060008F4F9F4F0895AA1BBB1B51E107C0AA1FBA
:10107000BB1FA617B70710F0A61BB70B881F991F39
:101080005A95A9F780959095BC01CD010895EE0F72
:0E109000FF1F0590F491E02D0994F894FFCF16
:10109E0041726475696E6F20417564696F20536982
:1010AE006E6577617665000D000700D80F49400028
:0610BE0000000026020004
:00000001FF
