:100000000C945B000C9483000C9483000C9483008C
:100010000C9483000C9483000C9483000C94830054
:100020000C9483000C94AC000C9483000C9483001B
:100030000C9483000C9483000C9483000C94830034
:100040000C947A010C9483000C9486030C94830026
:100050000C9483000C9483000C9483000C94830014
:100060000C9483000C948300000024272A000025B0
:10007000282B000023262904040404040404040299
:100080000202020202030303030303010204081035
:100090002040800102040810200102040810200002
:1000A0000000070002010000030406000000000039
:1000B00000000000610111241FBECFEFD4E0DEBFBD
:1000C000CDBF11E0A0E0B1E0EEE5F8E002C00590A0
:1000D0000D92AA30B107D9F713E0AAE0B1E001C050
:1000E0001D92A23AB107E1F710E0C6EBD0E004C0E0
:1000F0002297FE010E942904C43BD107C9F70E9440
:100100005A010C942D040C94000080910C0188235A
:10011000E1F35F9A10920C0180910F018093B3007C
:1001200080910E01482F50E020E030E065E009C0EA
:1001300080911201869FC0011124809312012F5FCC
:100140003F4F42175307A4F730931101209310013A
:100150008BB180588BB908951F920F920FB60F92F2
:1001600011248F939F93289A90E080910A0188230D
:1001700009F491E090930A019923C9F190E08091EC
:100180000B01882309F491E090930B01992351F01E
:100190008091790080930E0180917C008160809332
:1001A0007C000CC08091790080930F0180917C00CD
:1001B0008E7F80937C0081E080930C0180911201FE
:1001C0008F5F809312018091120181508093120100
:1001D000809112018F5F80931201809112018150F2
:1001E0008093120180917A00806480937A009F91BD
:1001F0008F910F900FBE0F901F90189561E0809126
:1002000000010E94570261E0809102010E945702A2
:1002100040E051EE60E070E084E193E00E947501FF
:10022000EAE7F0E080818B7F808380818260808339
:10023000808181608083ECE7F0E080818062808350
:1002400080818064808380818F77808380818E7FAE
:10025000808380818D7F808380818B7F808380817C
:10026000877F8083E0EBF0E080818F7B80838081DB
:1002700080688083808181608083808182608083C8
:10028000E1EBF0E08081877F8083808181608083E3
:1002900080818D7F808380818B7F8083239AEEE6AF
:1002A000F0E080818E7F8083E0E7F0E080818160F4
:1002B000808308950E941D020E94FE000E94850016
:1002C000FDCF88E091E09093150380931403089587
:1002D000862F0E94450308950E947D0308950E9481
:1002E0005E0308950E944D030895CB01BA010E9458
:1002F0000C0308951F920F920FB60F9211242F93A3
:100300008F939F93AF93BF938091160390911703A0
:10031000A0911803B09119038050904CAF4FBF4F7C
:100320008093160390931703A0931803B0931903B7
:1003300027C08091160390911703A0911803B091E4
:10034000190380589E43A040B040809316039093B9
:100350001703A0931803B093190380911A03909187
:100360001B03A0911C03B0911D030196A11DB11D9B
:1003700080931A0390931B03A0931C03B0931D0357
:100380008091160390911703A0911803B09119035F
:1003900081589E43A040B04060F6BF91AF919F91BD
:1003A0008F912F910F900FBE0F901F9018958FB7C0
:1003B000F89420911A0330911B0340911C03509133
:1003C0001D038FBFB901CA010895EF92FF920F93E9
:1003D0001F937B018C018FB7F89440911A035091C1
:1003E0001B0360911C0370911D038FBF2FB7F894FE
:1003F00080911A0390911B03A0911C03B0911D03DF
:100400002FBF841B950BA60BB70B8E159F05A0075E
:10041000B10760F31F910F91FF90EF90089501973E
:1004200059F0FC01EE0FFF1FEE0FFF1F32978FB741
:10043000F8943197F1F78FBF0895789484B582606E
:1004400084BD84B5816084BD85B5826085BD85B578
:10045000816085BDEEE6F0E0808181608083E1E827
:10046000F0E0808182608083808181608083E0E829
:10047000F0E0808181608083E1EBF0E08081846046
:100480008083E0EBF0E0808181608083EAE7F0E048
:1004900080818460808380818260808380818160AC
:1004A00080838081806880831092C1000895282F06
:1004B00030E0C90185579F4FFC01949129583F4F67
:1004C000F9018491882381F0E82FF0E0E859FF4F8B
:1004D000E491F0E0662329F480819095892380835C
:1004E00008958081892B80830895482F50E0CA01A8
:1004F00081569F4FFC012491CA0185579F4FFC01F3
:10050000949149585F4FFA0134913323C1F122236A
:1005100031F1233021F4809180008F7705C02430A1
:1005200031F4809180008F7D8093800018C021304D
:1005300019F484B58F7704C0223021F484B58F7DFF
:1005400084BD0DC0263021F48091B0008F7705C0A6
:10055000273029F48091B0008F7D8093B000E32F85
:10056000F0E0E359FF4FE491F0E0662329F4808145
:1005700090958923808308958081892B80830895B5
:10058000482F50E0CA0181569F4FFC012491CA01B7
:1005900085579F4FFC01949149585F4FFA01349160
:1005A000332319F420E030E035C0222331F1233029
:1005B00021F4809180008F7705C0243031F4809140
:1005C00080008F7D8093800018C0213019F484B59D
:1005D0008F7704C0223021F484B58F7D84BD0DC097
:1005E000263021F48091B0008F7705C0273029F4A0
:1005F0008091B0008F7D8093B000E32FF0E0EE5843
:10060000FF4FE491F0E0808120E030E0892311F099
:1006100021E030E0C9010895EF92FF920F931F93FC
:100620007B018C0122E030E040E050E00E94D603E4
:10063000205C3D4B404F5F4FCA01B901A8019701B3
:100640000E94D603C901DA010197A109B109292F36
:100650003A2F4B2F552747FD5A950196A11DB11DE5
:100660002093C50081508093C400E1ECF0E08081CC
:1006700080618083808188608083808180688083BE
:100680001F910F91FF90EF900895982F8091C000D7
:1006900085FFFCCF9093C600089580911E03909132
:1006A0001F0380589F4F2091200330912103821B0C
:1006B000930B60E870E00E94C3030895409120030B
:1006C0005091210380911E0390911F038417950779
:1006D00019F42FEF3FEF0FC0FA01EE5DFC4F2081C0
:1006E000CA01019660E870E00E94C3039093210361
:1006F0008093200330E0C9010895809120039091F8
:10070000210390931F0380931E0308951F920F925D
:100710000FB60F9211242F933F934F935F936F93D4
:100720007F938F939F93AF93BF93EF93FF934091EA
:10073000C600E0911E03F0911F03CF01019660E80F
:1007400070E00E94C3039C018091200390912103DB
:100750002817390739F0EE5DFC4F408330931F03B3
:1007600020931E03FF91EF91BF91AF919F918F91C5
:100770007F916F915F914F913F912F910F900FBE9D
:100780000F901F90189597FB092E07260AD077FD2A
:1007900004D027D006D000201AF4709561957F4FC1
:1007A0000895F6F7909581959F4F089597FB092E30
:1007B00005260ED057FD04D028D00AD0001C38F4EE
:1007C00050954095309521953F4F4F4F5F4F08957D
:1007D000F6F790958095709561957F4F8F4F9F4F5D
:1007E0000895AA1BBB1B51E107C0AA1FBB1FA61778
:1007F000B70710F0A61BB70B881F991F5A95A9F7CA
:1008000080959095BC01CD010895A1E21A2EAA1BF6
:10081000BB1BFD010DC0AA1FBB1FEE1FFF1FA217B0
:10082000B307E407F50720F0A21BB30BE40BF50BAD
:10083000661F771F881F991F1A9469F76095709536
:10084000809590959B01AC01BD01CF010895EE0FFD
:0E085000FF1F0590F491E02D0994F894FFCF5E
:0A085E000D00070000000000680113
:00000001FF
